:020000040800F2
:100000007806002059010008C7080008C508000844
:1000100000000000000000000000000000000000E0
:10002000000000000000000000000000CB080008F5
:100030000000000000000000C9080008CD0800080A
:100040006B010008000000006B0100086B01000854
:100050006B0100086B0100086B0100086B010008D0
:10006000000000006B0100086B0100086B01000834
:100070006B0100086B0100086B0100080000000024
:100080006B0100086B010008000000006B01000814
:100090006B0100086B0100086B0100086B01000890
:1000A0006B0100086B0100086B0100086B01000880
:1000B0006B01000800F002F800F03EF80CA030C818
:1000C000083824182D18671EA246AB4654465D46D4
:1000D000AC4201D100F030F87E460F3EB6460FCC60
:1000E0000126334200D0FB1A3343A246AB461847E1
:1000F000A00A0000C00A0000103A02D378C878C1F4
:10010000FAD8520701D330C830C101D504680C6059
:10011000704700000023002400250026103A01D378
:1001200078C1FBD8520700D330C100D50B607047AF
:100130001FB51FBD10B510BD00F04DF81146FFF7FB
:10014000F7FF00F0C9FB00F065F803B4FFF7F2FF1A
:1001500003BC00F06BF800000748804707480047E1
:10016000FEE7FEE7FEE7FEE7FEE7FEE70448054997
:10017000054A064B70470000D5080008B500000886
:100180007800002078060020780200207802002005
:1001900001E004C0091F0429FBD28B0701D50280AE
:1001A000801CC90700D00270704700290BD0C3071C
:1001B00002D00270401C491E022904D3830702D5D5
:1001C0000280801C891EE3E70022EEE70022DFE7C1
:1001D000704770477047754600F024F8AE4605003A
:1001E00069465346C008C000854618B020B5FFF7E1
:1001F000BDFF60BCB64600260027C0C5C0C5C0C54F
:10020000C0C5C0C5C0C5C0C5C0C5403D490849003E
:100210008D46704710B50446C046C0462046FFF7DD
:1002200094FF10BD004870471000002001491820BD
:10023000ABBEFEE72600020070470000B0B50446E2
:1002400000F00CF80546601C02D021480078041923
:1002500000F004F8401BA042FAD3B0BD0548006886
:100260007047C0461A48007802490A6810180860AA
:100270007047C0467000002080B57F48016810229A
:100280000A430260032000F005F800F023F8002084
:1002900080BDC04670B504467D20C0000C4E31784C
:1002A00000F062FB01467C48006800F05DFB00F056
:1002B000EFFA0125032C08D8002806D10025E843D1
:1002C00021462A4600F01CF87460284670BDC046DE
:1002D0000000002082B0094801680122114301603A
:1002E0000168114001910199110742680A43426077
:1002F000406808400090009802B070471810024013
:10030000002805D40322034693430C4A9A1806E0BA
:100310000F220240083A03239A43074BD218800762
:10032000C00E8901C9B28140FF2383401068984301
:10033000084310607047C0461CED00E000E400E098
:10034000F0B581B000284FD004464B4A1368012015
:1003500003408B4208D213680126B3430B4313605A
:10036000126832408A4240D1009121688A07434B8B
:1003700011D54A0707D507221202404B1B681343C9
:100380003E4A13603D4B1A68F0239A43A368134317
:100390003A4A1360394BC9072AD137490868012600
:1003A0003040009A904205D90868B0430860086858
:1003B000C0071AD12078400706D507200002196827
:1003C0008143E0680843186019680C220A402D48F0
:1003D000082A18D18A02120F2B4B9C5C274B9A6A71
:1003E000C90332D42A4837E00126304601B0F0BDB7
:1003F00061681A1F022908D001290BD112689203E3
:100400000646F2D50AE0044627E012689201064645
:10041000EBD503E0126892070646E6D51868032676
:10042000B04308431860FFF719FF0746144D134BFC
:1004300018680C210140606880008142ADD0FFF750
:100440000DFFC01BA842F2D9CFE70F210A400F4988
:10045000895C00F089FA094B444318680006000FD4
:100460000C49085CC4400C4804600320FFF712FFED
:100470000026304601B0F0BD0020024004100240CA
:100480008813000000127A006E0B00087E0B000833
:1004900000093D005E0B000808000020F0B587B0A1
:1004A00004460120002C00D1EAE104902078C00726
:1004B000F44E059426D071680C20014004291AD00E
:1004C00071680140082902D17068C00313D46168C3
:1004D00001204704002900D184E1052900D198E1D9
:1004E000012900D199E1010432688A433260810414
:1004F0003068884394E13068800303D56068002841
:1005000000D1BDE0207880071AD570680007800F01
:1005100007D070680C210140082975D17068C003AC
:1005200072D430688007059C03D5E068012800D0AC
:10053000A6E03068F82188432169C9000143316091
:10054000059C2078000724D42078400736D42078F2
:10055000C00600D4B4E005984069411D00D1A3E075
:10056000012800D0F4E0706B042101437163706BCB
:10057000012101437163FFF771FE0546706B80072F
:1005800000D595E0FFF76AFE411B03200229F5D94B
:1005900076E1706AE169002960D001210843706248
:1005A000FFF75CFE0546706A8007CDD4FFF756FE64
:1005B000401B0228F7D9032007B0F0BD01200390AB
:1005C0000107F0690840029006D1F0690843F06124
:1005D000F0690840069006980191AB4F3868C00555
:1005E00028D403980402386820433860FFF736FEA9
:1005F0000546386820421DD1FFF730FE401B6428B5
:10060000F7D9032007B0F0BD3068059CE1680029E8
:1006100039D0012108433060FFF720FE05463068DD
:10062000800786D4FFF71AFE401B0228F7D9032063
:1006300007B0F0BD05988068944F002800D19CE079
:10064000052800D1AEE0012800D1AFE0306A03995F
:1006500088433062306A04218843AAE0012188433C
:100660007062FFF7FBFD0546706A800700D46BE7F8
:10067000FFF7F4FD401B0228F6D9032007B0F0BDB8
:10068000049807B0F0BD012188433060FFF7E6FD14
:1006900005463068800700D452E7FFF7DFFD411BB5
:1006A00003200229F5D9EBE0706B042188437063C5
:1006B000706BF821884305998969C900014371630A
:1006C0000598046A002C1ED070680C21014008298E
:1006D0001CD1012C049800D1D2E0012003047168E0
:1006E0000B40F26A059D6C6AA34200D0C8E00F235C
:1006F0001A40EC6AA24200D0C2E09A041140AA6AF1
:10070000914200D0BCE0002007B0F0BD01200206FD
:1007100031680492914331604706FFF79FFD05461B
:10072000022C0BD1049C3068384200D188E0FFF7DE
:1007300095FD411B03200229F5D9A1E0306838421C
:10074000E1D0FFF78BFD411B03200229F6D997E08A
:10075000706B042101437163706B012188437063E6
:10076000FFF77CFD0546706B8007A9D5FFF776FD86
:10077000411B03200229F6D982E0306A039988439D
:100780003062306A042188433062FFF767FD054616
:10079000306A80071CD5FFF761FD411B0320B94279
:1007A000F6D96DE0306A042101433162306A039961
:1007B00008433062FFF752FD0546306A800707D4D0
:1007C000FFF74CFD401BB842F7D9032007B0F0BD3E
:1007D00002980028059C00D0B9E6F0690199884389
:1007E000F061B4E6010432688A4332608004316803
:1007F00081433160FFF732FD0546059C3068384281
:1008000000D17FE6FFF72AFD411B03206429F5D9BB
:1008100036E0810432680A433260010430680843DC
:100820003060FFF71BFD05463068384200D069E6AE
:10083000FFF714FD401B6428F6D9032007B0F0BD74
:10084000F06A0F218843059AD16A0143F1623D2085
:10085000000471688143906A0843516A01437160E2
:10086000306820433060FFF7F9FC044630683842B6
:1008700000D048E7FFF7F2FC011B03200229F5D95D
:1008800007B0F0BD00100240007000408813000067
:10089000401E010E01D0012070470749074A5060F1
:1008A000074803680B40032189075918016000209D
:1008B0009060072111607047FFFFFF0010E000E02B
:1008C00020ED00E0FEE7FEE77047704780B5FFF7D8
:1008D000C9FC80BD7047000090B0FFF7CDFC012639
:1008E000F0041F490A6802430A60B0061D4F3946EA
:1008F00014390A6802430A6004AD281D2C21FFF751
:1009000065FC00240C9410200890079602200490A7
:100910002846FFF7C3FD002803D0EFF3108072B61E
:10092000FEE7039402940194072000906846214654
:10093000FFF706FD002803D0EFF3108072B6FEE744
:100940007D20C40075033868284338602046FFF7CF
:1009500075FC3868A84338602046FFF76FFCF1E764
:10096000141002401408004843088B421AD3002296
:1009700003098B4279D3030A8B425ED3030B8B426C
:1009800042D3030C8B4227D30902FF2212BA030C75
:100990008B4202D31212090203D0030B8B4233D3D2
:1009A0001AE0D3E0411A8041401C704703460B43D4
:1009B00071D443088B42F5D3002203098B4254D3F0
:1009C000030A8B4239D3030B8B421DD3030C8B429A
:1009D00002D394466EE0090AC30B8B4201D3CB03CA
:1009E000C01A5241830B8B4201D38B03C01A524170
:1009F000430B8B4201D34B03C01A5241030B8B4272
:100A000001D30B03C01A5241C30A8B4201D3CB025C
:100A1000C01A5241830A8B4201D38B02C01A524141
:100A2000430A8B4201D34B02C01A5241030A8B4244
:100A300001D30B02C01A5241CDD2C3098B4201D35C
:100A4000CB01C01A524183098B4201D38B01C01ADA
:100A5000524143098B4201D34B01C01A5241030951
:100A60008B4201D30B01C01A5241C3088B4201D300
:100A7000CB00C01A524183088B4201D38B00C01AAD
:100A8000524143088B4201D34B00C01A5241411AD4
:100A9000524110007047CA0F00D04942031000D3E2
:100AA0004042534000229C4603098B422DD3030A47
:100AB0008B4212D38901FC2212BA030A8B420CD357
:100AC000890192118B4208D3890192118B4204D380
:100AD000890137D0921100E08909C3098B4201D303
:100AE000CB01C01A524183098B4201D38B01C01A3A
:100AF000524143098B4201D34B01C01A52410309B1
:100B00008B4201D30B01C01A5241C3088B4201D35F
:100B1000CB00C01A524183088B4201D38B00C01A0C
:100B20005241D9D243088B4201D34B00C01A5241E3
:100B3000411A00D201465241104663465B1000D371
:100B40004042704763465B1000D3404201B500212C
:100B5000004201D0C9430846C046C04602BD00005D
:100B60000000000000000102030406070809020358
:100B70000405060708090A0B0C0D0E0F10100102E0
:100B8000030405060708090A0B0C0D0E0F100000E0
:100B9000B00B00080000002010000000F800000862
:100BA000C00B0008100000206806000014010008B7
:100BB000010000000400000000127A0000000000A4
:04000005080000B53A
:00000001FF
